:100000000C9433010C9464010C9464010C9464010D
:100010000C9464010C9464010C9464010C946401CC
:100020000C9464010C9464010C9464010C946401BC
:100030000C9464010C9464010C9464010C946401AC
:100040000C9464010C9464010C9464010C9464019C
:100050000C9464010C9464010C9464010C94690781
:100060000C9464010C94DD070C94B3070C946401A8
:100070000C9464010C9464010C9464010C9464016C
:100080000C9464010C9464010C9464010C9464015C
:100090000C9464010C9464010C9464010C94130896
:1000A0000C9464010C9464010C9464010C9464013C
:1000B0000C9464010C9464010C9464010C9464012C
:1000C0000C9464010C9464010C9464010C9464011C
:1000D0000C9464010C9464010C9464010C9464010C
:1000E0000C9464010C9496010C94B9010C94B30423
:1000F0000C94A4040C94FC020C9437090C94C601D3
:100100000C94B1010C94CC010C94E2010C941702F4
:100110000C94AD010C94D0010C94DA010C945502AE
:100120000C9446020C94CD040C9469020C94A30424
:100130000C94B5010C94D4010C94C2010C94DE0112
:100140000C949B010C94E8010C94EC010C94AF020C
:100150000C94C6040C9429050C9419020C94FA040E
:100160000C9477020C94BC010C941802000022003D
:10017000250028002B002E00310034000201000071
:10018000050108010B010505050507050808080814
:10019000020202020A0A080804040404010101011F
:1001A000010101010303030303030303040707071A
:1001B0000C0C0C0C0C0C0C0C0202020206060606BF
:1001C000060606060B0B0B0B0B0B0B0B010210208C
:1001D000200808102040102040800201020108047D
:1001E0000201010204081020408080402010080411
:1001F000020180040201804020100804020108046A
:1002000002010102040810204080010204081020AD
:10021000408000000A0B02090C0D0E0807030401C0
:1002200000000000000000000000000000000000CE
:10023000000000000000000000000000000012119B
:10024000100000000000000000000000000000009E
:1002500000000000000000001F1C1F1E1F1E1F1FAB
:100260001E1F1E00370911241FBECFEFD1E2DEBFD3
:10027000CDBF00E00CBF23E0AAE2B2E001C01D92B6
:10028000A53BB207E1F712E0A0E0B2E0E4EEF7E14F
:1002900000E00BBF02C007900D92AA32B107D9F758
:1002A00011E0C3E3D1E000E006C021970109802FEF
:1002B000FE010E94C30AC233D10780E00807A9F7F4
:1002C0000E94D3090C94F00B0C940000282F30E00E
:1002D000F901EE5EFD4F9491F901E453FE4F449114
:1002E0002A573E4FF9012491222309F435C099235E
:1002F00011F191509231F8F4E92FF0E08827EC5792
:10030000FE4F8F4F0C94C30AB501B9019601AD01A0
:10031000B1019B01BC01C201C601CC01D001D401D5
:10032000DA01DE019B01E201E801EC01809180002D
:100330008F7780938000E22FF0E0EE0FFF1FE459EB
:10034000FE4FA591B4918FB7F894EC91611148C01C
:1003500040954E234C938FBF0895809180008F7DF0
:10036000E8CF80918000877FE4CF84B58F7784BD0C
:10037000E2CF84B58F7DFBCF8091B0008F778093E3
:10038000B000D9CF8091B0008F7DF9CF80919000DF
:100390008F7780939000CFCF809190008F7DF9CFA1
:1003A00080919000877FF5CF8091A0008F77809318
:1003B000A000C1CF8091A0008F7DF9CF8091A000D7
:1003C000877FF5CF809120018F7780932001B3CF75
:1003D000809120018F7DF9CF80912001877FF5CF1B
:1003E0004E2BB8CF3FB7F894809177029091780266
:1003F000A0917902B0917A0226B5A89B05C02F3F43
:1004000019F00196A11DB11D3FBFBA2FA92F982F3A
:100410008827BC01CD01620F711D811D911D42E035
:10042000660F771F881F991F4A95D1F70895089581
:100430000895AF92BF92CF92DF92EF92FF920F9307
:100440001F93CF93DF936C017B018B01040F151F6A
:10045000EB015E01AE18BF08C017D10759F06991D2
:10046000D601ED91FC910190F081E02DC601199526
:10047000892B79F7C501DF91CF911F910F91FF90E3
:10048000EF90DF90CF90BF90AF900895FC01538D17
:10049000448D252F30E0842F90E0821B930B54175E
:1004A00010F0CF96089501970895FC01918D828DEB
:1004B000981761F0A28DAE0FBF2FB11D5D968C9184
:1004C000928D9F5F9F73928F90E008958FEF9FEFC3
:1004D0000895FC01918D828D981731F0828DE80F7F
:1004E000F11D858D90E008958FEF9FEF0895FC0139
:1004F000918D228D892F90E0805C9F4F821B910906
:100500008F73992708958DEE92E00E94770221E083
:10051000892B09F420E0822F0895FC01A48DA80FF7
:10052000B92FB11DA35ABF4F2C91848D90E0019635
:100530008F739927848FA689B7892C93A089B18955
:100540008C91837080648C93938D848D981306C0F6
:100550000288F389E02D80818F7D80830895EF925A
:10056000FF920F931F93CF93DF93EC0181E0888F6D
:100570009B8D8C8D98131AC0E889F989808185FF3D
:1005800015C09FB7F894EE89FF896083E889F989DF
:1005900080818370806480839FBF81E090E0DF91E1
:1005A000CF911F910F91FF90EF900895F62E0B8D34
:1005B00010E00F5F1F4F0F731127E02E8C8D8E11EF
:1005C0000CC00FB607FCFACFE889F989808185FF56
:1005D000F5CFCE010E948D02F1CFEB8DEC0FFD2FF8
:1005E000F11DE35AFF4FF0829FB7F8940B8FEA8911
:1005F000FB8980818062CFCFCF93DF93EC01888D20
:100600008823B9F0AA89BB89E889F9898C9185FD8D
:1006100003C0808186FD0DC00FB607FCF7CF8C911B
:1006200085FFF2CF808185FFEDCFCE010E948D0244
:10063000E9CFDF91CF91089580E090E0892B29F0F8
:100640000E94830281110E94000080E090E0892BCB
:1006500049F080E090E0892B29F00E940000811190
:100660000E94000080E090E0892B49F080E090E05B
:10067000892B29F00E94000081110E94000080E077
:1006800090E0892B49F080E090E0892B29F00E94CE
:10069000000081110C940000089520914B02260F58
:1006A0003327331F21323105ECF42091C302FC01C2
:1006B00090E080E0243069F082E00895A0914B0240
:1006C0002191AC01455D5D4FA40FB52FB11D2C9359
:1006D0000196861798F380914B02680F60934B0246
:1006E00080E0089581E008951092C30281E0809334
:1006F000C20210929D0261E084E10E94660161E005
:1007000085E10E946601E9EBF0E080818E7F8083C5
:1007100080818D7F808388E48093B80085E4809316
:10072000BC000895CF93DF9391E090932A02882331
:10073000B9F0C091B800D091BA008091BC008A7B1A
:100740008093BC0060E084E10E94660160E085E186
:100750000E9466010E947403D093BA00C093B8004F
:10076000DF91CF9108958F929F92AF92BF92CF92D7
:10077000DF92EF92FF920F931F93CF93DF93D0916D
:10078000EC02D13208F0D7C0182FC091EB020E94C2
:10079000F2016B017C018091C30281116BC082E088
:1007A0008093C3021093C2028FEF8093C102109214
:1007B000C002D093BF02ABECB2E0EFE9F2E080E020
:1007C000D81391C010929E0280919E02CC0FC82B2C
:1007D000C0939E0280919D02813009F088C01092E2
:1007E0009D020E94F2016B017C0180919E02809328
:1007F000BB008091C5029091C602A091C702B09142
:10080000C802892B8A2B8B2BA1F00E94F201009148
:10081000C5021091C6022091C7023091C8026C191E
:100820007D098E099F09061717072807390708F45D
:1008300042C08091BC0083FDD8CF85EC8093BC0082
:100840000E94F2016B017C018091C302823009F4A5
:1008500050C08091C1028F3F09F46FC08091C102E6
:10086000803209F46CC08091C102803309F469C000
:1008700084E026C08091C5029091C602A091C70273
:10088000B091C802892B8A2B8B2B09F484CF0E944C
:10089000F2018090C5029090C602A090C702B0906D
:1008A000C8026C197D098E099F0986169706A8064D
:1008B000B90608F070CF8091C4020E94920385E0CF
:1008C0001092CA021092EC021092C902DF91CF91ED
:1008D0001F910F91FF90EF90DF90CF90BF90AF905E
:1008E0009F908F9008959D9191938F5F69CF85EE32
:1008F000A5CF8091C5029091C602A091C702B09188
:10090000C802892B8A2B8B2B09F49ECF0E94F201FF
:100910000091C5021091C6022091C7023091C80211
:100920006C197D098E099F090617170728073907D3
:1009300008F08ACFC0CF81E0C3CF80E0C1CF82E092
:10094000BFCF83E0BDCF0895E0917C0280917B0210
:10095000E81730F4F0E0E358FD4F808190E008950F
:100960008FEF9FEF089590917C0280917B022FEF93
:100970003FEF981748F4E92FF0E0E358FD4F20814E
:1009800030E09F5F90937C02C901089580917B02C3
:1009900090917C02891B990B0895CF92DF92EF9280
:1009A000FF920F931F93CF93DF937C01CB018A01BA
:1009B0002091C902222389F0EB016B01C40ED51EE0
:1009C000CC15DD0569F06991D701ED91FC9101909D
:1009D000F081E02DC7011995F3CF642F0E944D03DC
:1009E000C801DF91CF911F910F91FF90EF90DF90A1
:1009F000CF900895CF93DF931F92CDB7DEB7698371
:100A00002091C9022223F9F02091EC02203258F003
:100A100021E030E0FC013383228390E080E00F90FE
:100A2000DF91CF9108958091CA02E82FF0E0E5535D
:100A3000FD4F998190838F5F8093CA028093EC026F
:100A400081E090E0ECCF61E0CE0101960E944D0381
:100A5000F7CF90E080E00895CF93DF93EC018B8196
:100A60008823A1F0888191E09093C9028093EB02E2
:100A70001092CA021092EC0281E00E94B30391E04E
:100A8000811190E0892FDF91CF91089510927C021F
:100A900010927B021092CA021092EC020E94740320
:100AA00087E192E0909371028093700288E192E076
:100AB00090936F0280936E0281E08B83CE010E943F
:100AC0002C05982F8111CECFDDCF2F923F924F92E0
:100AD0005F926F927F928F929F92AF92BF92CF92CE
:100AE000DF92EF92FF920F931F93CF93DF9300D08B
:100AF00000D01F92CDB7DEB78C011982A09096036B
:100B0000B0909703D50114968D919C911597892BE0
:100B100009F427C111968D919C9112972C9131E087
:100B20003093C9022093EB021092CA021092EC0299
:100B3000DC01ED91FC910280F381E02D41E050E079
:100B4000BE016F5F7F4F1995019709F00AC180E0E0
:100B50000E94B303811105C1D12CC12C87E0282E3E
:100B6000312CF501848195817101EC18FD088E15F9
:100B70009F0508F47C01D5018C900E94F2012B01A5
:100B80003C018091C302811175C09E2CB0E2BE155C
:100B900010F4B0E29B2EE1E0E093C30221E0C1013A
:100BA0008E199F09C816D90608F420E02093C202C6
:100BB000FFEFF093C1021092C0028FEF890D809376
:100BC000BF0281E080939E0280919E02880C882A59
:100BD00080929E0280919D02813009F095C0109212
:100BE0009D020E94F2012B013C0180919E028093A4
:100BF000BB008091C5029091C602A091C702B0913E
:100C0000C802892B8A2B8B2BA1F00E94F201209124
:100C1000C5023091C6024091C7025091C8026419C2
:100C2000750986099709261737074807590708F4F1
:100C300042C08091BC0083FDD8CFA5ECA093BC003E
:100C40000E94F2012B013C018091C302813009F422
:100C50005FC08091C002891510F49090C002AFE986
:100C6000B2E0EDE7F2E080E0891551F19D919193BA
:100C70008F5FFACF8091C5029091C602A091C70202
:100C8000B091C802892B8A2B8B2B09F47ACF0E9452
:100C9000F2012091C5023091C6024091C7025091E5
:100CA000C802641975098609970926173707480786
:100CB000590708F066CF8091C4020E949203912CDC
:100CC00010927C0290927B029E141F0409F049C08E
:100CD00088248394912C8C0E9D1E8C0C9D1C3401B9
:100CE000C401861997098E159F05A0F5F50181812C
:100CF0009281DC01ED91FC910284F385E02D199540
:100D0000F40181934F01ECCFB5EEB093BC0098CFC6
:100D10008091C5029091C602A091C702B091C8020D
:100D2000892B8A2B8B2B09F48FCF0E94F201209103
:100D3000C5023091C6024091C7025091C8026419A1
:100D4000750986099709261737074807590708F0D4
:100D50007BCFB1CFCE0CDF1CF7E0CF16D10408F467
:100D600000CFE981EF77FA81FB805D814E814F777B
:100D70008F81282F30E094E0359527959A95E1F7FB
:100D8000922F990F990F291B220F280FD8012C930E
:100D9000842F90E024E0959587952A95E1F7982F88
:100DA000990F990F891B880F840F11968C931197B7
:100DB000652F70E034E0759567953A95E1F7862FD9
:100DC000880F880F681B660F650F12966C93129739
:100DD0004F2D50E064E0559547956A95E1F7842FD3
:100DE000880F880F481B440F4F0D13964C93139791
:100DF0002F2F30E074E0359527957A95E1F7822F13
:100E0000880F880F281B220F2F0F14962C931497EE
:100E10008E2F90E0F4E095958795FA95E1F7982F5D
:100E2000990F990F891B880F8E0F15968C93C80107
:100E300027960FB6F894DEBF0FBECDBFDF91CF91DE
:100E40001F910F91FF90EF90DF90CF90BF90AF90E8
:100E50009F908F907F906F905F904F903F902F90DA
:100E6000089585ED8093BC008091C5029091C602E3
:100E7000A091C702B091C8020796A11DB11D23E041
:100E8000B695A795979587952A95D1F72091BC009F
:100E900024FD03C01092C30208954091C5025091F1
:100EA000C6026091C7027091C802452B462B472BA2
:100EB00069F30097A105B10541F02AE22A95F1F7FF
:100EC00000C00197A109B109E1CF8091C4020C943F
:100ED00092031F920F920FB60F9211242F933F93FC
:100EE0008F939F93AF93BF938091730290917402FD
:100EF000A0917502B09176023091720223E0230F27
:100F00002D3758F50196A11DB11D209372028093D3
:100F1000730290937402A0937502B093760280914D
:100F2000770290917802A0917902B0917A020196AD
:100F3000A11DB11D8093770290937802A09379024E
:100F4000B0937A02BF91AF919F918F913F912F9172
:100F50000F900FBE0F901F90189526E8230F029652
:100F6000A11DB11DD2CF1F920F920FB60F92112467
:100F70000BB60F922F933F934F935F936F937F9393
:100F80008F939F93AF93BF93EF93FF938DEE92E078
:100F90000E948D02FF91EF91BF91AF919F918F9130
:100FA0007F916F915F914F913F912F910F900BBE69
:100FB0000F900FBE0F901F9018951F920F920FB6B3
:100FC0000F9211240BB60F922F938F939F93EF9351
:100FD000FF93E091FD02F091FE028081E091030316
:100FE000F091040382FD1DC09081809106038F5F04
:100FF0008F7320910703821741F0E0910603F0E020
:10100000E351FD4F958F80930603FF91EF919F91E0
:101010008F912F910F900BBE0F900FBE0F901F90CE
:1010200018958081F2CF1F920F920FB60F92112464
:101030000BB60F922F933F934F935F936F937F93D2
:101040008F939F93AF93BF93EF93FF938091B900DA
:10105000887F803609F44DC008F040C0883209F41A
:10106000A9C028F5803109F49DC0C8F4882309F48B
:10107000FBC0883009F496C0FF91EF91BF91AF910A
:101080009F918F917F916F915F914F913F912F91A0
:101090000F900BBE0F900FBE0F901F9018958831C8
:1010A00009F488C0803241F78093C10214C08034B3
:1010B00009F49DC040F48033B9F38833E9F6809396
:1010C000C10285ECB0C0803509F485C0883509F4CB
:1010D00096C0883489F60E943107CECF883909F44A
:1010E0008CC038F5883729F050F4883611F08037F5
:1010F00019F683E08093C30210926D0257C08838BE
:1011000009F47BC0803919F0803809F0B5CF80919F
:101110006D02803208F071C0E0916D0281E08E0FA7
:1011200080936D028091BB00F0E0E35BFD4F808314
:101130003DC0803B39F0E0F4803A09F479C0883A48
:1011400009F09ACF84E08093C30210924C0210926F
:101150004B02E0917002F0917102199580914B025F
:1011600081110FC081E080934B0210922B0209C0C5
:10117000803C09F4A6CF883C09F4A3CF883B09F052
:101180007BCFE0914C0281E08E0F80934C02F0E027
:10119000E55DFD4F80818093BB0090914C02809172
:1011A0004B0229C080919E028093BB0085EC809306
:1011B000BC0062CF9091C0028091BF02981758F591
:1011C000E091C00281E08E0F8093C002F0E0E15612
:1011D000FD4F8081E9CFE091C00281E08E0F8093C6
:1011E000C0028091BB00F0E0E156FD4F80839091FA
:1011F000C0028091BF029817C8F285E8D8CFE0916D
:10120000C00281E08E0F8093C0028091BB00F0E0AD
:10121000E156FD4F80838091C20281115CCF81E055
:1012200080939D0284EA8093BC001092C30224CF75
:1012300085EC8093BC001092C30280916D028032D5
:1012400030F4E0916D02F0E0E35BFD4F10826091BD
:101250006D0270E0E0916E02F0916F028DE492E019
:10126000199510926D0208CF1092C10234CF1092DE
:10127000F0021092EF0288EE93E0A0E0B0E08093DD
:10128000F1029093F202A093F302B093F4022AE0E9
:1012900032E03093EE022093ED0225EC30E0309303
:1012A000FA022093F90224EC30E03093FC02209300
:1012B000FB0220EC30E03093FE022093FD0221EC93
:1012C00030E0309300032093FF0222EC30E03093B3
:1012D00002032093010326EC30E0309304032093B3
:1012E0000303109206031092070310920803109252
:1012F000090310928D0310928C0380938E039093B8
:101300008F03A0939003B09391038CE192E09093AC
:101310008B0380938A031092970310929603109286
:10132000B0031092AF031092AE031092AB03E8E546
:10133000F2E081E08C3049F09491823009F49F5FB3
:1013400021E0280F3196992361F18093AC0381E06D
:101350008093AD0310929903109298031092AA0300
:1013600010929B0310929A0310929D0310929C037B
:1013700010929F0310929E031092A1031092A0035B
:101380001092A3031092A2031092A5031092A4033B
:101390001092A7031092A6031092A9031092A8031B
:1013A0000895822FC7CFCF93DF93CDB7DEB72C97A9
:1013B0000FB6F894DEBF0FBECDBF789484B58260BF
:1013C00084BD84B5816084BD85B5826085BD85B5E9
:1013D000816085BD80916E00816080936E00109267
:1013E00081008091810082608093810080918100E2
:1013F0008160809381008091800081608093800073
:101400008091B10084608093B1008091B0008160D0
:101410008093B000809191008260809391008091D0
:101420009100816080939100809190008160809311
:1014300090008091A10082608093A1008091A10022
:1014400081608093A1008091A00081608093A000C2
:10145000809121018260809321018091210181602E
:1014600080932101809120018160809320018091EF
:101470007A00846080937A0080917A008260809301
:101480007A0080917A00816080937A0080917A005E
:10149000806880937A001092C100809196039091A9
:1014A0009703009711F00E94670B86E090E00E947E
:1014B000CB0A8C0188E6F80180838AE893E0928366
:1014C0008183138280E290E0958384831093970355
:1014D0000093960310927C0210927B021092CA0233
:1014E0001092EC020E94740387E192E090937102E3
:1014F0008093700288E192E090936F0280936E0275
:1015000081E0F8018383C8010E942C05CE01019679
:101510000E94650586E0FE013196ABEAB3E00190DA
:101520000D928A95E1F7CE0107960E9465050E940B
:10153000F2016B017C0184EF882E99249394A12CF5
:10154000B12C0E94F2016C197D098E099F09683E39
:10155000734081059105A8F3F1E08F1A9108A10865
:10156000B10828EEC20E23E0D21EE11CF11C81144A
:101570009104A104B10429F7CE0101960E946505EA
:101580000E941C03D0CFEE0FFF1F881F8BBF079058
:10159000F691E02D19940F931F93CF93DF93823030
:1015A000910510F482E090E0E091B303F091B40370
:1015B00030E020E0B0E0A0E0309799F4211531054B
:1015C00009F44AC0281B390B24303105D8F58A812B
:1015D0009B816115710589F1FB0193838283FE0173
:1015E00011C0408151810281138148175907E0F0F1
:1015F0004817590799F4109761F012960C931297B7
:1016000013961C933296CF01DF91CF911F910F91CA
:1016100008950093B3031093B403F4CF211531055B
:1016200051F04217530738F0A901DB019A01BD01BF
:10163000DF01F801C1CFEF01F9CF9093B40380939C
:10164000B303CDCFFE01E20FF31F8193919322509C
:10165000310939832883D7CF2091B1033091B20368
:10166000232B41F420910202309103023093B20304
:101670002093B10320910002309101022115310520
:1016800041F42DB73EB74091040250910502241B4E
:10169000350BE091B103F091B203E217F307A0F428
:1016A0002E1B3F0B2817390778F0AC014E5F5F4FB8
:1016B0002417350748F04E0F5F1F5093B203409335
:1016C000B103819391939FCFF0E0E0E09CCFCF9363
:1016D000DF930097E9F0FC01329713821282A09108
:1016E000B303B091B403ED0130E020E01097A1F412
:1016F00020813181820F931F2091B1033091B20379
:101700002817390709F061C0F093B203E093B103E1
:10171000DF91CF910895EA01CE17DF07E8F54A81FE
:101720005B819E0141155105B1F7E901FB83EA8315
:1017300049915991C40FD51FEC17FD0761F48081C1
:1017400091810296840F951FE90199838883828194
:1017500093819B838A83F0E0E0E012968D919C91C7
:1017600013970097B9F52D913C911197CD010296F1
:10177000820F931F2091B1033091B20328173907CC
:1017800039F6309751F51092B4031092B303B09329
:10179000B203A093B103BCCFD383C28340815181F4
:1017A000840F951FC817D90761F44E5F5F4F88817A
:1017B0009981480F591F518340838A819B8193836C
:1017C00082832115310509F0B0CFF093B403E09383
:1017D000B3039ECFFD01DC01C0CF13821282D7CFAD
:0417E000F894FFCFAB
:1017E4000000B503800000000000AF0219024602A9
:1017F400FC0277025502690200000000FA04CD04DD
:0A1804002905A304C604B304A404DC
:00000001FF
